:020000040800F2
:10000000480E0020D1040008590200085B020008D5
:100010005F02000863020008670200080000000099
:100020000000000000000000000000006B0200085B
:100030006D020008000000006F0200087102000855
:10004000EB040008EB040008EB040008EB040008D4
:10005000EB040008EB040008EB040008EB040008C4
:10006000EB040008EB040008EB040008EB040008B4
:10007000EB040008EB040008EB040008EB040008A4
:10008000EB040008EB040008EB040008EB04000894
:10009000EB040008EB040008EB040008EB04000884
:1000A000EB040008EB040008EB040008EB04000874
:1000B00059440008EB040008EB040008EB040008B6
:1000C000EB040008EB040008EB040008EB04000854
:1000D000EB0400084F25000861260008C72E000821
:1000E000EB040008EB040008EB040008EB04000834
:1000F000EB040008EB040008EB040008EB04000824
:10010000EB040008EB040008EB040008EB04000813
:10011000EB040008EB040008EB040008EB04000803
:10012000EB040008EB040008EB040008EB040008F3
:1001300000F002F800F061F80AA090E8000C824498
:100140008344AAF10107DA4501D100F056F8AFF275
:10015000090EBAE80F0013F0010F18BFFB1A43F0A5
:1001600001031847CC790000EC7900000A444FF0F5
:10017000000C10F8013B13F0070408BF10F8014B06
:100180001D1108BF10F8015B641E05D010F8016B4B
:10019000641E01F8016BF9D113F0080F1EBF10F8AF
:1001A000014BAD1C0C1B09D16D1E58BF01F801CBD2
:1001B000FAD505E014F8016B01F8016B6D1EF9D555
:1001C0009142D6D37047000000230024002500266A
:1001D000103A28BF78C1FBD8520728BF30C148BFAA
:1001E0000B607047642905F03380002070471FB50D
:1001F00005F007F91FBD10B510BD05F0EFF9114668
:10020000FFF7F5FF00F026F905F00DFA03B4FFF74C
:10021000F2FF03BC02F012F930BF72B662B680F38F
:10022000088870470B49D1F800C04A685CF8043B65
:100230001068184442F8040B8C4528BFA1F1DC0C6F
:100240008A4228BFA1F1DC02C1F800C04A6020F058
:1002500000407047E0070020704700BFFEE700BF86
:10026000FEE700BFFEE700BFFEE77047704770473C
:10027000704700000CB50020019000906C480068A9
:1002800040F480306A49086000BF6948006800F4A3
:10029000003000900198401C0190009818B9019816
:1002A000B0F5A06FF1D16248006800F4003010B1E1
:1002B0000120009001E0002000900098012843D127
:1002C0005C48006840F010005A4908600846006821
:1002D00020F0030008600846006840F00200086053
:1002E000534840685249486008464068486008469C
:1002F000406840F4806048600846406820F47C1004
:1003000048600846406840F4E810486008460068C5
:1003100040F08070086000BF4548006800F0007041
:100320000028F9D04248406820F003004049486066
:100330000846406840F00200486000BF3C48406802
:1003400000F00C000828F9D10CBD10B5FFF792FFA2
:1003500010BD10B53648006840F00100344908600F
:1003600008464068344908403149486008460068FA
:10037000324908402E4908600846006820F4802071
:1003800008600846406820F4FE0048604FF41F00F3
:100390008860FFF7DAFF4FF000602949086010BD60
:1003A00010B5002100200022214B5B6803F00C01F6
:1003B00021B1042906D0082928D107E0214B224C7D
:1003C000236027E01F4B204C236023E0184B5B6821
:1003D00003F47010164B5B6803F48032022303EBC6
:1003E000904022B9194B4343174C23600DE0104B4A
:1003F0005B6803F4003323B1144B4343124C236076
:1004000003E0104B4343104C236003E00D4B0E4CB4
:10041000236000BF00BF064B5B68C3F303130C4CA3
:10042000E15C094B1B68CB40074C236010BD00000A
:1004300000100240002002400000FFF8FFFFF6FE1F
:1004400008ED00E000127A000000002000093D00E5
:100450000400002000BF00BF00BF022001F02EFEFC
:1004600001F0BCFD4FF4165002F013F84FF4165093
:1004700002F0D4FC02F037FC02F0AEFD012001F0E6
:100480006EFF4FF47A7001F0E6FD642001F0E3FDA9
:1004900002F048FD02F073FD02F08FFD4FF47A7018
:1004A00001F0D9FD41F61F41632002F053FB0AE041
:1004B00001200549087000200449087000BF024867
:1004C00000780028FBD1F3E76500002064000020DD
:1004D0000948804709480047FEE7FEE7FEE7FEE7D8
:1004E000FEE7FEE7FEE7FEE7FEE7FEE70448054914
:1004F000054A064B7047000053030008310100080D
:1005000048080020480E0020480A0020480A002021
:1005100031490143314A1160704770B50021002311
:100520000F22C47804B32D4C246804F4E064C4F5AD
:10053000E064210AC1F10403CA40447804FA03F1DB
:100540008478144021430901254C0678A15504788C
:1005500004F01F050124AC4005786D11AD0005F1D4
:10056000E025C5F8004109E0047804F01F050124E6
:10057000AC401C4D0678761145F8264070BD1A4AED
:100580000A400243154B1B1F1A60704739B1134ACA
:10059000121D12680243114B1B1D1A6006E00F4A20
:1005A000121D126882430D4B1B1D1A6070470428F0
:1005B00008D14FF0E021096941F004014FF0E02239
:1005C000116107E04FF0E021096921F004014FF0CB
:1005D000E0221161704700000000FA050CED00E018
:1005E00000E400E080E100E080FFFF1F10B504465A
:1005F000CC48844208D10121042000F093FB002163
:10060000042000F08FFB46E0C748844208D1012156
:10061000082000F087FB0021082000F083FB3AE06F
:10062000C248844208D10121102000F07BFB002148
:10063000102000F077FB2EE0BD48844208D1012154
:10064000202000F06FFB0021202000F06BFB22E057
:10065000B848844208D10121402000F063FB00210A
:10066000402000F05FFB16E0B348844208D101212E
:10067000802000F057FB0021802000F053FB0AE0AF
:10068000AE48844207D10121801500F04BFB0021C8
:10069000A01500F047FB10BD10B50121084600F081
:1006A00041FB0021012000F03DFB10BD2DE9F04190
:1006B000024600250026002000230024002791F890
:1006C00003C00CF00F0591F803C00CF0100CBCF146
:1006D000000F03D091F802C04CEA050591F800C064
:1006E000BCF1000F31D0146800202BE04FF0010C5A
:1006F0000CFA00F3B1F800C00CEA03069E4220D1C8
:1007000083004FF00F0C0CFA03F7BC4305FA03FC0F
:100710004CEA040491F803C0BCF1280F06D14FF055
:10072000010C0CFA00FCC2F814C00AE091F803C0F6
:10073000BCF1480F05D14FF0010C0CFA00FCC2F8D7
:1007400010C0401C0828D1D31460B1F800C0BCF11F
:10075000FF0F34DD546800202EE000F1080C4FF04C
:10076000010808FA0CF3B1F800C00CEA03069E4237
:1007700021D183004FF00F0C0CFA03F7BC4305FAAC
:1007800003FC4CEA040491F803C0BCF1280F05D126
:1007900000F1080C08FA0CF8C2F8148091F803C0B4
:1007A000BCF1480F07D100F1080C4FF0010808FA1E
:1007B0000CF8C2F81080401C0828CED35460BDE865
:1007C000F0814FF6FF710180022181700421C17018
:1007D00070470246002093680B400BB1012000E0F7
:1007E000002070470146886880B2704702460020AA
:1007F000D3680B400BB1012000E000207047014698
:10080000C86880B2704701617047416170470AB1A2
:10081000016100E041617047C16070474FF4803270
:100820000A438261816182618269826970470246FE
:100830000020434B18684FF68073184040EA0210BE
:1008400008433F4B186070473E49C8617047F0B598
:100850000A46002300240021002500F00046B6F1DE
:10086000004F02D1364EF16901E0354E7168C0F398
:10087000034583B200F44016B6F5401F08D121F0BD
:1008800070612F4E766826F070662D4F7E6012E004
:1008900000F48016B6F5801F06D1032606FA05F48B
:1008A000A14341F0706106E0460D360103FA06F6F9
:1008B000B14341F0706122B1460D360103FA06F6EC
:1008C000314300F00046B6F1004F02D11C4EF161F9
:1008D00001E01B4E7160F0BD30B500228B071C0F8C
:1008E0000F2303FA04F2164B08338C1053F824300C
:1008F0009343134C08348D1044F8253023468C1054
:1009000053F824308C07240F00FA04F423430C4CD2
:1009100008348D1044F8253030BD0A49DC310860B8
:100920007047000000080140000C01400010014029
:100930000014014000180140001C0140002001404B
:10094000000001400000204210B50121080700F01E
:10095000F6F900214FF0805000F0F1F910BD2A495E
:100960000862704728490861704701460020274AFD
:10097000106820F0E0000843106070472249A03161
:100980000860704710B502460020204B186820F020
:100990000300104318601E4B1B6843F004031C4CFB
:1009A0002360012901D130BF00E020BF184B1B6834
:1009B00023F00403164C236010BD1448006840F077
:1009C0000400124908600846006840F00200086010
:1009D0000F48006840F004000D49086000BF00BFE8
:1009E00030BF704701460020084A52680A400AB1E9
:1009F000012000E0002070470449096841EA8001B5
:100A0000024A11607047000000000E420070004072
:100A100010ED00E0DF48006840F00100DD490860AB
:100A200008464068DC490840DA49486008460068E2
:100A3000DA490840D74908600846006820F4802059
:100A400008600846406820F4FE0048604FF41F002C
:100A500088607047CF49096821F48031CD4A116020
:100A60001146096821F480211160B0F5803F03D060
:100A7000B0F5802F0ED106E0C649096841F48031F7
:100A8000C44A116007E0C349096841F4A021C14A82
:100A9000116000E000BF00BF704710B501460022A2
:100AA000002300204A11012A02D1BA4C236806E033
:100AB000022A02D1B74C236A01E0B64C636A01F006
:100AC0001F02012494401C400CB1012000E00020D2
:100AD00010BD38B5002000900024002500BF312053
:100AE000FFF7DBFF05460098401C00900098B0F52A
:100AF000A06F01D0002DF2D03120FFF7CEFF08B15A
:100B0000012400E00024204638BD01460020A14A0F
:100B1000106820F0F80040EAC10010607047A0495A
:100B200008607047024600209A4B586820F47C10F9
:100B300042EA01031843974B58607047984908668A
:100B4000704701460020934A506820F00300084394
:100B5000506070478F48406800F00C0070470146B5
:100B600000208C4A506820F0F00008435060704725
:100B700001460020874A506820F4E0600843506036
:100B8000704701460020834A506820F4605040EAD4
:100B9000C1005060704729B17E4A527A02437D4BB2
:100BA0005A7204E07B4A527A82437A4B5A727047F7
:100BB0007B49D8310860704701460020754A50686B
:100BC00020F440400843506070470021714A2032B1
:100BD0001170704A82F82010012802D004280AD12E
:100BE00004E001216B4A2032117005E00521694AB9
:100BF0002032117000E000BF00BF704769490860F3
:100C000070476449096A0143624A11627047654945
:100C100044390860704730B50021002200240023C9
:100C20005C4D6D6805F00C0121B1042905D008293F
:100C300023D105E05C4D056022E05B4D05601FE0BF
:100C4000544D6D6805F47012524D6D6805F4803492
:100C5000022505EB92421CB9544D554305600BE04B
:100C60004C4D6D6805F400351DB1504D5543056080
:100C700002E04D4D5543056002E04B4D056000BF5D
:100C800000BF444D6D6805F0F0010909484D6B5CEB
:100C90000568DD4045603F4D6D6805F4E061090A77
:100CA000434D6B5C4568DD4085603A4D6D6805F4E9
:100CB0006051C90A3E4D6B5C4568DD40C560354DED
:100CC0006D6805F44041890B3A4D6B5CC568B5FB16
:100CD000F3F5056130BD29B12E4A526902432D4B0F
:100CE0005A6104E02B4A526982432A4B5A61704789
:100CF00029B1284A92690243264B9A6104E0254AA9
:100D000092698243234B9A61704729B1214AD26983
:100D10000243204BDA6104E01E4AD26982431D4B34
:100D2000DA61704729B11B4AD2680243194BDA6075
:100D300004E0184AD2688243164BDA60704729B142
:100D4000144A12690243134B1A6104E0114A1269F2
:100D50008243104B1A61704712494039086070474E
:100D60000F49C86470470B49C87170470948406A09
:100D700040F0807007494862704701460020054AEC
:100D800092680A400AB1012000E000207047014942
:100D900088727047001002400000FFF8FFFFF6FE67
:100DA000000042428004424200127A0000093D00E5
:100DB000E7000020F700002010B50446FE488442FA
:100DC00008D10121C014FFF7ADFF0021E014FFF7A7
:100DD000A9FFC4E0B4F1804F08D101210846FFF714
:100DE000AEFF00210120FFF7AAFFB8E0F3488442DC
:100DF00008D101210220FFF7A2FF00210220FFF706
:100E00009EFFACE0EE48844208D101210420FFF7A8
:100E100096FF00210420FFF792FFA0E0E9488442FA
:100E200008D101210820FFF78AFF00210820FFF7E1
:100E300086FF94E0E448844208D101211020FFF7A6
:100E40007EFF00211020FFF77AFF88E0DF48844210
:100E500008D101212020FFF772FF00212020FFF799
:100E60006EFF7CE0DA48844208D101214014FFF78C
:100E700059FF00216014FFF755FF70E0D548844208
:100E800009D10121C804FFF74DFF00214FF40020D4
:100E9000FFF748FF63E0D048844209D101210805EB
:100EA000FFF740FF00214FF48010FFF73BFF56E0B3
:100EB000CA48844209D101214805FFF733FF0021C8
:100EC0004FF40010FFF72EFF49E0C548844208D1D7
:100ED00001214020FFF733FF00214020FFF72FFFC3
:100EE0003DE0C048844208D101218020FFF727FF60
:100EF00000218020FFF723FF31E0BB48844208D166
:100F000001218015FFF71BFF0021A015FFF717FF38
:100F100025E0B648844209D101210804FFF702FF09
:100F200000214FF48030FFF7FDFE18E0B048844206
:100F300009D101214804FFF7F5FE00214FF40030EC
:100F4000FFF7F0FE0BE0AB48844208D10121880492
:100F5000FFF7E8FE00214FF48020FFF7E3FE10BD0D
:100F600000220288944B98420ED0994B98420BD0A5
:100F7000B0F1804F08D0914B984205D0904B9842E9
:100F800002D0904B984204D14FF68F731A404B8891
:100F90001A438D4B984207D08C4B984204D04FF6A1
:100FA000FF431A40CB881A4302808B8883850B88C5
:100FB0000385814B98420BD0854B984208D08B4BD0
:100FC000984205D08A4B984202D08A4B984201D170
:100FD0000B7A038601238382704770B500240022B8
:100FE0000023058C4FF6FE7635400584028C8388FD
:100FF000048B4FF68F752C40B51E2C400D882C436A
:10100000751E2A400D892A434D882A436A4DA842FD
:101010000BD06F4DA84208D0744DA84205D0744D36
:10102000A84202D0734DA84213D14FF6F7752A405B
:101030004D892A434FF6FB752A408D882A434FF687
:10104000FF652B404FF6FF552B408D892B43CD89F3
:101050002B4383800483CD888586028470BD70B560
:10106000002400220023058C4FF6EF7635400584DE
:10107000028C8388048B48F6FF752C404FF6FF45A1
:101080002C400D884FF6FF7606EA05252C434FF6D7
:10109000DF752A400D8906EA05152A434D8806EAC0
:1010A00005152A43444DA84202D0494DA8421DD1FE
:1010B0004FF67F752A404D894FF6FF7606EA0515F3
:1010C0002A434FF6BF752A408D8806EA05152A4344
:1010D0004FF6FF352B404FF2FF752B408D8906EA06
:1010E00085052B43CD8906EA85052B438380048340
:1010F000CD880587028470BD70B5002400220023CE
:10110000058C4FF6FF6635400584028C8388848BFE
:101110004FF68F752C404FF6FC752C400D882C43F4
:101120004FF6FF552A400D894FF6FF7606EA052552
:101130002A434D8806EA05252A431F4DA84202D0BE
:10114000234DA8421DD14FF2FF752A404D894FF61D
:10115000FF7606EA05252A434FF6FF352A408D889B
:1011600006EA05252A434EF6FF752B404DF6FF751E
:101170002B408D8906EA05152B43CD8906EA051516
:101180002B4383808483CD888587028470BD70B5AE
:10119000002200230024058C4EF6FF76354005849E
:1011A000038C8488828B48F6FF752A404FF6FF45F2
:1011B0002A400D8820E00000002C0140000400407F
:1011C00000080040000C00400010004000140040E7
:1011D00000340140004C01400050014000540140E7
:1011E00000180040001C004000200040004001406A
:1011F00000440140004801404FF6FF7606EA05250D
:101200002A434DF6FF752B400D8906EA05352B4321
:101210004D8806EA05352B43FA4DA84202D0FA4D17
:10122000A84208D14BF6FF752C408D894FF6FF760A
:1012300006EA85152C4384808283CD88A0F840502F
:10124000038470BD828B4FF2FF331A408283828BFE
:101250004FF6FF7303EA01231A4382837047F0B508
:101260000C461546002200210026078C4EF6FF7C16
:1012700007EA0C070784828B018C4FF6FF7707EA99
:10128000043640F6FF473A404FF6FF7707EA052756
:101290003A434FF6FF7707EA03373A43D94FB8424C
:1012A0000ED0D94FB8420BD0B0F1804F08D0D74FF5
:1012B000B84205D0D64FB84202D0D64FB84206D178
:1012C0004DF6FF77394046F48057394305E047F63D
:1012D000FF57394044F48057394382830184F0BD7D
:1012E000828B4FF6F3731A408283828B0A43828388
:1012F0007047F0B50C461546002200210026078CE9
:101300004FF6FF6C07EA0C070784828B018C4FF6BF
:10131000FF7707EA04264FF60C773A404FF6FF773F
:1013200007EA03172F433A43B64FB8420ED0B64FE1
:10133000B8420BD0B0F1804F08D0B44FB84205D0BE
:10134000B34FB84202D0B34FB84206D14FF6FF5761
:10135000394046F48077394305E04FF2FF57394072
:1013600044F48077394382830184F0BD028B4FF2CD
:10137000FF331A400283028B4FF6FF7303EA012307
:101380001A4302837047F0B50C461546002200212F
:101390000026078C4FF6EF7C07EA0C070784028BC8
:1013A000018C4FF6FF7707EA041640F6FF473A40F4
:1013B0004FF6FF7707EA03373A434FF6FF7707EA1E
:1013C00005273A438F4FB8420ED08F4FB8420BD00B
:1013D000B0F1804F08D08D4FB84205D08C4FB84245
:1013E00002D08C4FB84206D14FF6DF77394046F035
:1013F0001007394305E04FF65F77394044F0100796
:10140000394302830184F0BD028B4FF6F3731A4017
:101410000283028B0A4302837047F0B50C461546DF
:1014200000220021068C4FF6FE773E400684028B98
:10143000018C4FF60C7632407E1C06EA03162E43D2
:101440003243704EB0420ED06F4EB0420BD0B0F16E
:10145000804F08D06D4EB04205D06D4EB04202D0E4
:101460006C4EB04206D14FF6FD76314044F0010695
:10147000314305E04FF6F576314044F00106314343
:1014800002830184F0BD70B505460C465D48854277
:101490000ED05D4885420BD0B5F1804F08D05B4837
:1014A000854205D05A48854202D05A48854200D12B
:1014B00000E000BF208850B92389A28861882846AF
:1014C000FFF7ABFFE1882846FFF79EFF25E0208865
:1014D00004280AD12389A28861882846FFF753FF90
:1014E000E1882846FFF742FF17E0208808280AD144
:1014F0002389A28861882846FFF7FBFEE1882846F9
:10150000FFF7EEFE09E02389A28861882846FFF7ED
:10151000A6FEE1882846FFF795FE70BD2DE9F04153
:1015200005460C4600260127608808B9022600E01F
:101530000026A088012801D1022700E00127208889
:10154000A0B92389A28861882846FFF766FFE18851
:101550002846FFF759FF23893A4631462846FFF7C8
:1015600012FFE1882846FFF701FF13E02389A288D4
:1015700061882846FFF707FFE1882846FFF7F6FE57
:1015800023893A4631462846FFF747FFE188284637
:10159000FFF73AFFBDE8F0810A884B881A438B8831
:1015A0001A43CB881A430B891A434B891A438B89F8
:1015B0001A43A0F8442070474FF6FF718180002144
:1015C0000180C1804180017270470021018041800B
:1015D0008180C180018141818181C1817047002169
:1015E00001804180012181800021C18001817047FB
:1015F0000021018041808180C18001814181818100
:1016000070470000002C01400034014000040040FD
:1016100000080040000C004021B1028842F00102A5
:10162000028004E002884FF6FE731A400280704781
:1016300031B1B0F8442042F40042A0F8442005E063
:10164000B0F84420C2F30E02A0F8442070471AB14B
:1016500083890B43838102E083898B4383817047B5
:101660008182704741EA0203A0F8483070471AB1FE
:1016700083890B43838102E083898B438381704795
:1016800001894FF6F8721140018170470A46002126
:1016900001894FF68F73194011430181704730B5AE
:1016A00004460D4629462046FFF7F0FF208940F00A
:1016B0000700208130BD2DE9F04104460D46164655
:1016C0001F46602D06D13B46012231462046FFF7DA
:1016D0005AFE05E03B46012231462046FFF79DFEBB
:1016E00029462046FFF7D2FF208940F007002081DD
:1016F000BDE8F08130B50C4600210189C9B24FF632
:10170000FF7505EA0325154325432943018130BDB3
:101710002DE9F04105460E461746984600244346FB
:101720003A4631462846FFF7E5FF2C894FF6F87018
:10173000044044F007044FF68F70044044F07004F6
:101740002C81BDE8F081F0B504460D4616461F46D3
:101750003B46324629462046FFF7CCFF208940F41D
:1017600080402081F0BD0185828270470A460021B9
:1017700001884FF68F731940114301807047F0B50F
:101780000C4615461E460021002200230189028BCB
:10179000038C4FF6F877394021434FF6FC473A4027
:1017A00040F201173A434FF6DD773B404FF6FF77A3
:1017B00007EA06172F433B43018102830384F0BDF0
:1017C0000A460021018B4FF68F73194011430183A4
:1017D00070470A460021018B48F6FF7319404FF607
:1017E000FF7303EA02231943018370470A4600216D
:1017F000818B4FF68F7319401143818370470A46DE
:101800000021818B48F6FF7319404FF6FF7303EAFE
:10181000022319438183704721B1028842F080027C
:10182000028004E002884FF67F731A4002807047FE
:1018300021B1828842F00402828004E082884FF65F
:10184000FB731A408280704721B1828842F00802FF
:10185000828004E082884FF6F7731A4082807047D6
:1018600021B1828842F00102828004E082884FF632
:10187000FE731A40828070470A460021018B4FF6A2
:10188000F77319401143018370470A460021018B09
:101890004FF2FF7319404FF6FF7303EA0223194317
:1018A000018370470A460021818B4FF6F773194078
:1018B0001143818370470A460021818B4FF2FF73E9
:1018C00019404FF6FF7303EA0223194381837047DF
:1018D0000A460021018B4FF6FB7319401143018327
:1018E00070470A460021018B4FF6FF3319404FF62F
:1018F000FF7303EA02231943018370470A4600215C
:10190000818B4FF6FB7319401143818370470A4660
:101910000021818B4FF6FF3319404FF6FF7303EA26
:1019200002231943818370470A460021018B4FF639
:101930007F7319401143018370470A460021018BD0
:10194000C1F30E014FF6FF7303EA0223194301832B
:1019500070470A460021818B4FF67F73194011436F
:10196000818370470A460021818BC1F30E014FF637
:10197000FF7303EA02231943818370470A4600215B
:10198000018C4FF6FD7319401143018470470A46DC
:101990000021018C4FF6F773194011430184704701
:1019A0000A460021018C4FF6DF7319404FF6FF7392
:1019B00003EA02131943018470470A460021018C8F
:1019C0004FF67F7319404FF6FF7303EA0213194372
:1019D000018470470A460021018C4FF6FF531940DD
:1019E0004FF6FF7303EA02231943018470470A4646
:1019F0000021018C4FF2FF7319404FF6FF7303EA89
:101A000002231943018470470A460021018C4DF6D8
:101A1000FF7319404FF6FF7303EA02331943018441
:101A2000704730B5002301248C40A3B2048C9C4342
:101A30000484048C02FA01F5ADB22C43048430BD59
:101A400030B5002304248C40A3B2048C9C4304844E
:101A5000048C02FA01F5ADB22C43048430BD70B59C
:101A60000346002000241846183001258D40ACB2F2
:101A70001D8CA5431D8409B1082909D100EB610023
:101A8000056825F0700505600568154305600EE0E2
:101A90000D1FC5F34E052844056825F4E045056093
:101AA00005684FF6FF7606EA02263543056070BDED
:101AB00021B1028842F00202028004E002884FF65F
:101AC000FD731A400280704721B1028842F004027F
:101AD000028004E002884FF6FB731A4002807047D0
:101AE00021B1828842F08002828004E082884FF631
:101AF0007F731A408280704702884FF6F7731A404E
:101B0000028002880A430280704782884FF68F73F2
:101B10001A40828082880A438280704702894FF689
:101B2000F8731A40028102890A43028170470289D0
:101B30004FF67F731A40028102890A43028170477F
:101B4000818470478185704781867047018770471F
:101B500081877047A0F84010704702884FF6FF4316
:101B60001A40028002880A43028070470146888E2C
:101B700070470146088F70470146888F70470146BD
:101B8000B1F8400070470146888C70470146088DC7
:101B9000704702460020138A0B400BB1012000E081
:101BA00000207047CA430282704730B502460020C9
:101BB00000230024158A05EA0103958905EA01043A
:101BC00013B10CB1012000E0002030BDCA430282F5
:101BD0007047000010B50446FB48844209D101213A
:101BE0008803FFF79FF800214FF48040FFF79AF831
:101BF00032E0F648844209D101214804FFF79FF8FA
:101C000000214FF40030FFF79AF825E0F0488442B5
:101C100009D101218804FFF792F800214FF48020B8
:101C2000FFF78DF818E0EB48844209D10121C80480
:101C3000FFF785F800214FF40020FFF780F80BE054
:101C4000E548844208D101210805FFF778F8002112
:101C50004FF48010FFF773F810BD2DE9F04786B000
:101C600005460E460024A24600BFA1460027B089C3
:101C700000B100BF2F462C8A4CF6FF700440F0885C
:101C800004432C82AC894EF6F3100440B0883189AD
:101C90000843718908430443AC81AC8A4FF6FF4086
:101CA0000440B0890443AC8201A8FEF7B4FFC648E3
:101CB000874202D1DDF810A001E0DDF80CA0A88970
:101CC00000F4004040B10AEBCA0000EB0A10316892
:101CD0004900B0FBF1F807E00AEBCA0000EB0A107C
:101CE00031688900B0FBF1F86420B8FBF0F0040122
:101CF0002009642101FB1089A88900F4004040B14B
:101D0000322000EBC900B0FBF1F000F00700044303
:101D100008E0322000EB09106421B0FBF1F000F084
:101D20000F0004432C8106B0BDE8F0874FF4165134
:101D3000016000218180C18001810C21418100214D
:101D40008181704710B502460020108A4FF2FF03D0
:101D500018400B884C8823438C882343CC8823432A
:101D60001843108210BD0021018041808180C18014
:101D7000704721B1828942F40052828104E0828955
:101D80004DF6FF731A4082817047F0B50346002478
:101D900000260025002040F66A17B94200D100BF96
:101DA0001846C1F3421401F01F06012707FA06F591
:101DB000012C01D10C3004E0022C01D1103000E0E4
:101DC00014301AB107682F43076002E00768AF4379
:101DD0000760F0BD1AB1838A0B43838202E0838AD5
:101DE0008B4383827047028A4FF6F0731A40028257
:101DF000028A0A430282704782894FF2FF731A40B7
:101E0000828182890A438281704721B1828942F0AE
:101E10000202828104E082894FF6FD731A408281BA
:101E20007047028A4FF6DF731A400282028A0A4321
:101E30000282704721B1028A42F48042028204E0A9
:101E4000028A4BF6FF731A4002827047C1F3080200
:101E50008280704701468888C0F3080070478189F6
:101E600041F0010181817047028BD2B20283028B63
:101E700042EA012202837047028B02F47F4202830E
:101E8000028B0A430283704721B1828A42F020020A
:101E9000828204E0828A4FF6DF731A4082827047A2
:101EA00021B1828A42F01002828204E0828A4FF6D7
:101EB000EF731A408282704721B1828A42F0080291
:101EC000828204E0828A4FF6F7731A40828270475A
:101ED00021B1828942F40042828103E08289C2F307
:101EE0000E028281704721B1828A42F400628282AE
:101EF00004E0828A4FF2FF731A4082827047828A1E
:101F00004FF6FB731A408282828A0A4382827047AC
:101F100021B1828A42F00202828204E0828A4FF674
:101F2000FD731A408282704702460020B1F5007F9F
:101F300000D100BF13880B400BB1012000E000204E
:101F4000704701F40072B2F5007F00D100BFCA43B0
:101F50000280704770B5024600240023002500204F
:101F600040F66A16B14200D100BFC1F3421501F03C
:101F70001F03012606FA03F3012D02D1968933408F
:101F800006E0022D02D1168A334001E0968A3340E2
:101F90000C12012606FA04F41688344013B10CB171
:101FA000012000E0002070BD10B50022002340F6A3
:101FB0006A14A14200D100BF0A1201249440A3B2C6
:101FC000DC43048010BD00000038014000440040A4
:101FD00000480040004C00400050004010B56FF039
:101FE0000400FEF7E4FA2E4800682E49B0FBF1F039
:101FF0002D4908700846007800EB4001C1EBC01085
:102000004FF6FF7101EAC0002849088010BD014663
:10201000254A12784A434FF0E0235A6100229A6120
:102020001A46126942F001021A6100BF4FF0E02225
:10203000106900F001021AB100F48032002AF5D0D4
:102040004FF0E022126922F001024FF0E0231A6102
:1020500000229A6170470146144A12884A434FF0A1
:10206000E0235A6100229A611A46126942F0010285
:102070001A6100BF4FF0E022106900F001021AB1AE
:1020800000F48032002AF5D04FF0E022126922F0ED
:1020900001024FF0E0231A6100229A6170470000AC
:1020A0000000002000127A00FC000020FE0000204A
:1020B000D74A0A400243D74B1A60704701460723AC
:1020C00023EA01021202D34B1B1D18684FF6FF03CF
:1020D0001840D14B18431043CE4B1B1D186070475E
:1020E0002DE9F0410746884614461D462846FFF76D
:1020F000E5FFC5F1040007FA00F60F20284100EAC9
:102100000800064306F00F06E21704EBD2625211F4
:10211000920002F1E022D2F800212146E31704EBFD
:10212000D3635B11A4EB431C012303FA0CF31A43A2
:102130002046E31704EBD3635B119B0003F1E0231C
:10214000C3F80021B548005D40EA0610B3490855C0
:10215000BDE8F08170B504460B46CE1701EB9676CC
:10216000C6F38700CE1701EB9676B610A1EB860674
:10217000B606350EAA4B9B6943F00103A84EB36126
:102180004FEAB63353F820300F26AE40B343A54E86
:1021900046F82030334653F8203004FA05F61E4343
:1021A000A04B43F82060A04B1B6801268E403343B0
:1021B0009D4E336002F0010343B19B4B0C331B680F
:1021C00001268E403343984E0C36336002F00203F2
:1021D00043B1954B08331E6801238B401E43924B3D
:1021E00008331E6070BD00B500208D490861C860CD
:1021F0001420486100208861C8610846006840F0EA
:1022000001000860084640688849084084494860E1
:102210000846006886490840814908600846006809
:1022200020F4802008600846406820F4FE004860E2
:102230000020886000214FF00060FFF739FF00BDEB
:102240002DE9F0470C4615464FF4A06202F0070650
:10225000704F3F1D39684FF6FF0739406E4F0F43EF
:1022600047EA06216B4F3F1D396000BF26462F46C7
:1022700002F00701C1F10709B9F1040F02D94FF0CB
:10228000040901E0C1F10709C84601F10409B9F1E7
:10229000070F02D24FF0000901E0A1F10309CC467B
:1022A0004FF0010909FA08F9A9F1010909EA06093B
:1022B00009FA0CF94FF0010A0AFA0CFAAAF1010A1C
:1022C0000AEA070A49EA0A0300BF02461946002A39
:1022D0000ADA0E074FEA166C4E4E103602F00F0760
:1022E0003F1F06F807C003E00E07370E4B4EB754EA
:1022F00000BF00BF00F01F0201219140420992007F
:1023000002F1E022C2F8001100BFBDE8F08710B56D
:1023100040480830006840F004003E490831086039
:102320003F48C06940F080503D49C861414840681D
:1023300040F480703F4948600846006840F004005F
:1023400008600846006840F002000860FDF764FF7E
:1023500010BD3148001D2F49091D08607047014616
:1023600049062F4A926942F001022D4B9A612D4A8B
:10237000083A526822F0E0622A4B083B5A601A463B
:1023800052680A435A60704730B504460025FFF78B
:102390002AFF2348006840F480302149086000BFCC
:1023A0001F480068400C0028FAD04FF480601C4998
:1023B0004860A01EC4B20846406840EA84404860B5
:1023C0000846406840F4803048601B48006840F090
:1023D0003200194908601248006840F080701049C6
:1023E000086000BF0E480068400E0028FAD00C4874
:1023F000406840F002000A49486005E0084840682B
:10240000C0F3870505F00305022DF7D130BD0000AC
:1024100080FFFF1F08ED00E00000FA0500E400E087
:102420000010024008000140000401400000FFF8D5
:10243000FFFFF6FE0070004000200240014600BF92
:10244000704700BF964A128802F04002002AF9D075
:10245000C2B2934B1B1D1A8070470BE000BF91491D
:10246000098801F040010029F9D001788D4A121D38
:102470001180401C01780029F0D1704700BF8949C4
:10248000098801F040010029F9D08649091D08801A
:10249000704710B586B00446012144F20400FEF7EF
:1024A00027FC4FF40070ADF8140003208DF81600DF
:1024B00018208DF8170005A97B48FEF7F7F84FF4B0
:1024C0008060ADF8140004208DF8170005A9764847
:1024D000FEF7ECF825208DF8000000208DF80100B3
:1024E00002208DF8020001208DF803006846FEF7F7
:1024F00014F801940020ADF80800ADF80A00ADF81A
:102500000C00ADF810000C20ADF80E0001A96448D5
:10251000FFF7A3FB012240F225516148FFF735FC8C
:10252000012240F224415E48FFF72FFC01215C4864
:10253000FFF71FFC06B010BD00BF5949098801F024
:1025400040010029F9D05649091D0880704770B52F
:10255000002440F225515248FFF7FCFCA0B150483E
:10256000001D0088C4B2514801680068401C4F4AF1
:1025700010604F48445410460068B0F57A7F13D974
:102580000020114608600FE040F224414448FFF764
:10259000E1FC48B142480088C5B24148001D0088AE
:1025A000C5B201204349086070BD10B586B004462D
:1025B00001214148FEF7A9FB0420ADF814000320D7
:1025C0008DF8160018208DF8170005A93648FEF77B
:1025D0006DF80820ADF8140004208DF8170005A947
:1025E0003148FEF763F826208DF8000001208DF8B1
:1025F000010000208DF8020001208DF803006846DC
:10260000FDF78BFF01940020ADF80800ADF80A003B
:10261000ADF80C00ADF810000C20ADF80E0001A9CB
:102620002648FFF71AFB012240F225512348FFF705
:10263000ACFB012240F224412048FFF7A6FB012118
:102640001E48FFF796FB06B010BD00BF1B49098866
:1026500001F040010029F9D01849091D0880704790
:1026600070B5002440F225511448FFF773FC40B1C7
:102670001248001D0088C4B2114812490968445428
:102680000CE040F224410D48FFF764FC30B10B48E8
:102690000088C5B20948001D0088C5B270BD0000A1
:1026A00000380140004800400008014008010020B7
:1026B000CC02002010010020040002000044004071
:1026C000B4060020140100200146302903DB39291B
:1026D00001DC012070470020FCE70146A1F1300039
:1026E000704701462B2901D02D2901D101207047C7
:1026F0000020FCE70246002104E0505C08B90846CF
:102700007047491CB1F57A7FF7DB4FF47A70F7E731
:10271000F0B504460D461E460127002308E0106868
:10272000401C10601068A84202DB4FF4CA70F0BD74
:102730001168605CFFF7C8FF0028F0D0106800281F
:102740000DDD1168491E605CFFF7CBFF012806D143
:102750001068401E205C2D2801D14FF0FF370AE0A1
:1027600003EB830043001168605CFFF7B6FF03448E
:102770001068401C10601068A84205DA1168605C9F
:10278000FFF7A2FF0028EBD107FB03F03060002029
:10279000CDE72DE9F04F85B005460E4614469A4622
:1027A000002004900390DFF8B0B1012002900AE00D
:1027B0002068401C20602068B04204DB4FF4CA70DF
:1027C00005B0BDE8F08F2168685CFFF77DFF002849
:1027D000EED0206800280EDD2168491E685CFFF7F6
:1027E00080FF012807D12068401E285C2D2802D1D7
:1027F0004FF0FF30029004AB224631462846FFF7E7
:1028000087FF8146B9F1000F01D04846D8E7049808
:10281000002802DA0498404204902068285C2E28A0
:1028200032D12168491C685CFFF74EFF60B3206815
:10283000401C20601FE02168685CFFF74EFF01909C
:1028400004F02AFE8046594604F072FE07460399BA
:1028500004F082FC0390584604F052FC3F4A404B7F
:10286000CDE9000104F03CF9074603F05DFE834624
:102870002068401C20602068B04205DA2168685C4E
:10288000FFF722FF0128D6D0049804F005FE804609
:10289000039904F061FC0746029804F0FDFD3946F7
:1028A000019004F045FECAF80000002088E72DE9F9
:1028B000F04107460D46384602F0ACFD80462846FA
:1028C00002F0A8FD0646B04502DA0020BDE8F0811E
:1028D00000240BE0A8EB0400401E395C301B401EB6
:1028E000285C814201D00020F0E7641CB442F1DB97
:1028F0000120EBE72DE9F04106460D46304602F097
:1029000089FD8046284602F085FD0746B84502DA73
:102910000020BDE8F081002406E0305D295D88429A
:1029200001D00020F5E7641CBC42F6DB0120F0E793
:1029300070B505460E46144631462846FFF7DAFFC5
:10294000012806D121462846FFF7B1FF012800D112
:1029500070BD0020FCE70000CDCCCC3D9A99999940
:102960009999B93F08B501210420FEF7C1F920204B
:10297000ADF8000048208DF8030069466A48FDF76D
:1029800095FE08BD01466948006828B96848008876
:10299000401C674A108002E00020654A10806348AE
:1029A000006828B96348007810B90120614A1070A6
:1029B00061480078B0B95F480078012807D15F48C6
:1029C0000078401C5D4A107001205B4A10705B4823
:1029D0000078022806D10020584A1070584A10800A
:1029E0000220704751480068012804D10020514A54
:1029F0001070514A10705148007801281CD150487D
:102A00000088401C4E4A10801046008888420ADD2B
:102A100047480088884206DA0020484A1070484A31
:102A200010800120DDE742480088884204DD002054
:102A3000424A1070424A10800020D2E74148007894
:102A4000002831D03948006870B13F48006858B15B
:102A50003648001D006838B13B48001F006818B1B7
:102A6000394808380068F8B90020364A10702F48F5
:102A7000006808B9012115E03348006808B902214F
:102A800010E031480838006808B903210AE02748F7
:102A9000001D006808B9042104E02B48001F0068ED
:102AA00000B90521C8B2704720480068012814D138
:102AB00025480068012810D11C48001D0068012825
:102AC0000BD12148001F0068012806D11E48083894
:102AD0000068012801D11B4A10700020E3E71B4861
:102AE000008840B91148006828B919480088401C7E
:102AF0001749088002E00020154908801448008822
:102B0000C82807DD012011490880002010490880ED
:102B1000012070470D480088012802D100200B4990
:102B200008800020F5E70000000801401401214260
:102B30001E01002018010020190100201A010020A8
:102B40001C010020200100203C0122422401002021
:102B5000220100207FB505460C4601210846FEF7FC
:102B6000D4F8ADF80850ADF804400020ADF80A00E4
:102B7000ADF8060001A94FF08040FEF7F1F90122FF
:102B800011469007FEF763FD1C208DF80000012020
:102B90008DF801008DF802008DF803006846FDF7FE
:102BA000BCFC01218807FEF737FD7FBD30B589B039
:102BB00005460C4601210420FEF7A7F80121082054
:102BC000FEF796F84FF47070ADF8200018208DF8DD
:102BD000230002208DF8220008A98948FDF766FD30
:102BE000ADF81850ADF814400020ADF81A00ADF85B
:102BF000160005A98348FEF7B3F96020ADF804007C
:102C00000120ADF806000020ADF80A00ADF80C0078
:102C100001A97C48FEF7E1F901A97A48FEF71FFAFD
:102C200001A97848FEF768FA01A97648FEF7AFFADD
:102C300008217448FEF720FE08217248FEF725FEA1
:102C400008217048FEF72EFE08216E48FEF733FE7D
:102C500001216C48FEF7E0FD01216A48FEF7DCFC2B
:102C600009B030BD684A926942F40062664B9A61CD
:102C70001A46926942F004029A61644A126822F08C
:102C80000F02624B1A601A46126842F00B021A6079
:102C90005F4A1080121F11805D4A143A128842F078
:102CA00060025B4B143B1A801A46128842F00802FD
:102CB0001A80574A0C3A128842F00102544B0C3BDE
:102CC0001A80534A1832128842F40042504B18338B
:102CD0001A8080224E4B2C3B1A801A46128842F0F2
:102CE00001021A8070474848806940F00400464954
:102CF00088610846C06940F00100C8614348001F70
:102D000000686FF30F004149091F0860084600681A
:102D10004BF6BB3108433D49091F086042F20F7072
:102D2000C90488858F2008850846008B40F0600024
:102D300008830846008B40F4C04008830846808B17
:102D400040F0600088830846808B40F4C040888350
:102D50000846808B40F4006088830846808B40F0F2
:102D6000080088830846008B40F008000883084666
:102D7000008B40F4006008830846008C40F48050CB
:102D800008840846008C40F4807008840846008C53
:102D900040F0100008840846008C40F001000884D0
:102DA00080200880C005008840F00100088070473E
:102DB0002DE9F04105460E463146164804F0B8FBB1
:102DC000074604F049FB0446012D06D0022D08D029
:102DD000032D0AD0042D0FD10BE04FF080418C86DB
:102DE0000AE04FF080410C8706E04FF080418C876D
:102DF00002E009490C8000BF00BFBDE8F08100007F
:102E0000000C01400008004000100240040801408E
:102E10002C2C014000401C464000004010B586B0FC
:102E2000044601210820FDF763FF01218804FDF716
:102E30006CFF4FF48060ADF8140003208DF816008D
:102E400018208DF8170005A93148FDF72FFC4FF425
:102E50000060ADF8140004208DF8170005A92C4877
:102E6000FDF724FC27208DF8000000208DF80100DC
:102E70008DF8020001208DF803006846FDF74DFB38
:102E800001940020ADF80800ADF80A00ADF80C0080
:102E9000ADF810000C20ADF80E0001A91D48FEF79A
:102EA000DCFE012240F225511A48FEF76EFF012296
:102EB00040F224411748FEF768FF01211548FEF74C
:102EC00058FF06B010BD10B540F225511148FFF76C
:102ED00041F860B10F48001D0088C1B20E48026879
:102EE0000068401C0C4B18600C4881540FE040F205
:102EF00024410848FFF72EF848B106480088C4B2BC
:102F00000448001D0088C4B201200549086010BDB6
:102F1000000C01400048004008010020CC020020C5
:102F200010010020EE48806940F00400EC498861FF
:102F30000846806940F008008861EA48006820F08F
:102F40007060E84908600846006840F080600860EA
:102F5000081D006820F47040091D086008460068DC
:102F600040F480400860E048006820F00F00DE492F
:102F700008600846006840F004000860704708B523
:102F800001211020FDF7B4FE01210846FDF7B0FE37
:102F90004FF46040ADF8000004208DF8030069464E
:102FA000D248FDF783FB0120FDF7D9FC0020FDF797
:102FB0000CFE0020FDF7D3FC08BD08B50121082058
:102FC000FDF796FE0420ADF800008DF80300694679
:102FD000C548FDF76BFB08BD10B500210320FFF7C6
:102FE000E7FE00210420FFF7E3FE00210120FFF7A8
:102FF000DFFE00210220FFF7DBFE10BD2DE9F041CE
:1030000004460D4616461F464FF00008B8480021FA
:1030100001604160018181727B20B54908707D208B
:103020008872200A48708C70280AC8700D71300AA6
:1030300048718E71380AC8710F720921AC4800F0CE
:103040006BF98046AA4880F80980BDE8F0812DE937
:10305000F04105460E4617469846002443463A4638
:1030600031462846FFF7CAFF00BF04E0A049085DCB
:10307000FFF7EBFA641C0B2CF8DBBDE8F08170B5B0
:1030800004460D46012C0ED12946FFF791FE002182
:103090000220FFF78DFE29460320FFF789FE00215D
:1030A0000420FFF785FE022C0FD100210120FFF73D
:1030B0007FFE29460220FFF77BFE00210320FFF759
:1030C00077FE29460420FFF773FE70BD70B50446F5
:1030D0000D46022C14D100210120FFF769FE610783
:1030E000284604F0A7F8064631460220FFF760FEA6
:1030F00000210420FFF75CFE29460320FFF758FE5D
:10310000012C14D100210220FFF752FEA10728460E
:1031100004F090F8064631460120FFF749FE0021F1
:103120000320FFF745FE29460420FFF741FE70BD4E
:1031300010B57048006801280CD16F48006848B984
:103140006C4814380068012804D16C490220FFF74C
:1031500096FF4FE06748006840B966481438006839
:10316000012803D16649FFF7B1FF43E061480068D9
:10317000012808D15F481438006820B9604902204E
:10318000FFF7A4FF36E05B48006801280DD15A48DC
:103190000068012809D1574814380068012804D173
:1031A00056490220FFF76BFF24E05248006830B90F
:1031B0005148006818B94F4814380068A8B14D4804
:1031C000006838B94C48006820B94A48143800688B
:1031D00001280AD04748006801280BD146480068FA
:1031E00040B944481438006820B946A002F024F8D9
:1031F000FFF7F2FE10BD10B54448006801280CD15D
:103200004248001D006840B9404808300068012865
:1032100003D13A49FFF733FF53E03C48006848B90F
:103220003A4808300068012804D135490220FFF7E8
:103230004DFF46E035480068012808D13348083082
:10324000006820B92E490120FFF740FF39E02F48E0
:10325000006801280DD12D48001D0068012808D103
:103260002A4808300068012803D12449FFF707FFE6
:1032700027E02648006838B92448001D006818B9BE
:10328000224808300068B8B12048006840B91F489B
:10329000001D006820B91D480830006801280BD0C7
:1032A0001A48006801280CD11848001D006840B970
:1032B00016480830006820B9FFF78EFE14A001F010
:1032C000BBFF10BD10B500240B480830006820B9C2
:1032D000012414B1FFF780FE0224204610BD000037
:1032E0000010024000080140000C014000100140A5
:1032F000D20600202C01214200812142A69B443BA2
:103300000AD7A33B743131310A0000003401224254
:10331000683131310A00000010B502460B4600202A
:10332000002103E0545C60404C1CE1B29942F9DB9F
:1033300010BD10B504460021204604F0C5F901D89F
:10334000204610BD84F00040FBE72DE9FF4F8FB011
:1033500014469946DDE91C0103F0FEFE83461E99E2
:1033600003F0FAFE824603F0CBFE074602F0AAFF06
:1033700005464FF00052F84B03F0B2FBCDE90601D1
:10338000DDE91C0103F0E8FE019003F0B9FE0746F9
:1033900002F098FF05464FF02042F04B03F0A0FBEF
:1033A00082468B461C9803F0ABFE074602F08AFF6C
:1033B00005464FF02042EA4B03F092FB52465B4633
:1033C000CDE9020103F0E2F8CDE90401DDE90623CD
:1033D00003F0DCF8CDE9080103F0A6F80A90DDE976
:1033E0001C0103F0B9FE83461E9903F0B5FE824628
:1033F00003F086FE074603F021F805464FF0005221
:10340000D54B03F06DFBCDE90601DDE91C0103F0AE
:10341000A3FE019003F074FE074603F00FF8054683
:103420004FF02042CD4B03F05BFB82468B461C984D
:1034300003F066FE074603F001F805464FF0204210
:10344000C74B03F04DFB52465B46CDE9020103F04A
:103450009DF8CDE90401DDE9062303F097F8CDE9F5
:10346000080103F061F80B90484603F049FE8246DC
:1034700002F0E4FF05460E460A9803F041FE2A4694
:103480003346CDE9080103F02BFB074603F04CF867
:103490000D90484603F034FE054602F013FF8246C5
:1034A0008B460A9803F02CFE074652465B4603F013
:1034B00017FBCDE9080103F037F80C900D990F9830
:1034C00004F033F98046FFF734FF054603F018FE99
:1034D0000646A44AA44B03F001FC1FD310990C9894
:1034E00004F02EF98046FFF724FF054603F008FE9E
:1034F00006469C4A9C4B03F0F1FB0FD321460B98E8
:1035000004F01EF98046FFF714FF054603F0F8FDAE
:103510000646944A944B03F0E1FB04D24FF0FF308F
:1035200013B0BDE8F08F0120FAE72DE9F0418046A5
:103530000D46012D06D0022D1BD0032D30D0042DB9
:103540005CD144E0404603F0DBFD0646874A884BE9
:1035500003F0C4FB0AD8404603F0D2FD0646834A76
:10356000844B03F081FA01D8012401E04FF0FF34CD
:1035700044E0404603F0C4FD06460022134603F033
:10358000ADFB0AD8404603F0BBFD0646774A7A4BAE
:1035900003F06AFA01D8022401E06FF001042DE083
:1035A000404603F0ADFD0646704A714B03F096FBB2
:1035B0000AD8404603F0A4FD06466C4A6D4B03F062
:1035C00053FA01D8032401E06FF0020416E04046EC
:1035D00003F096FD0646654A654B03F07FFB0AD86B
:1035E000404603F08DFD0646604A624B03F03CFA0C
:1035F00001D8012401E04FF0FF3400BF00BF204696
:10360000BDE8F08110B5FCF70DFEE22190FBF1F270
:1036100001FB1200A0F18704204610BD2DE9F05FE8
:103620008246504603F00CFA8046504A524B03F053
:1036300057FA06460022514B03F064F8044602F0A4
:1036400073FF83465846BDE8F09F2DE9F0470446D6
:103650004B49204603F06CFF824603F051FD0746BC
:10366000424A454B03F04EF8054602F05DFF8146A5
:103670004846BDE8F0872DE9F74F90B090464146A7
:10368000404603F055FF04901199084603F050FF9F
:1036900002901099084603F04BFF0190029903F045
:1036A0005BFD0390049903F057FD059003F028FD9E
:1036B000CDE9060102F012FFCDE9080102F034FF66
:1036C0000E901199084603F033FF049010990846B4
:1036D00003F02EFF0390049903F03EFD059003F0E4
:1036E0000FFDCDE9060102F0F9FECDE9080102F077
:1036F0001BFF0D9023490E9803F0E6FF07D222A08E
:1037000001F09AFD4FF0FF3013B0BDE8F08F0021BB
:10371000109803F051FE06D10021119803F04CFEE1
:1037200001D1002636E00D99109803F083FD059035
:1037300003F0E6FCCDE9060102F0BCFACDE9080190
:1037400002F0F2FE064601213046FFF7EEFE0028A9
:1037500020DA6FF00100D7E7AE47C13F9999B93F32
:1037600047E1BA3F7B14AE47E17A843FF1D4C853B6
:10377000FB21F9BFFB21F93FFB2109400080664096
:10378000000034437B14AE3E746F6F206C6F6E6725
:103790000A000000FE48006803F0B2FCFD4AFE4B40
:1037A000CDE9060102F0F2FECDE9080102F0BCFE0F
:1037B000F74908600846006803F0A2FCF74AF84B96
:1037C000CDE9080103F08AFA07D80020F54908700E
:1037D000F548EF490860801796E7ED480068F3491F
:1037E0004860EB48006803F08BFCCDE9000102F073
:1037F00069FD4FF00052EE4BCDE9020103F070F984
:10380000CDE906010D9803F07BFCCDE90401DDE96B
:10381000062303F08BFBCDE9080102F085FE81460B
:10382000DB48006803F06CFCCDE9000102F006FE05
:103830004FF00052DE4BCDE9020103F051F9CDE922
:103840000601404603F05CFCCDE90401DDE90623F6
:1038500003F06CFBCDE9080102F066FE82464946A2
:10386000484603F065FE51460690504603F060FE60
:103870000590069903F070FCCE49079003F060FFB5
:10388000CD49089003F05CFFCC49099003F0D2FCCD
:1038900083465846FFF74DFD4FF07E51099003F0E7
:1038A00013FF02D26FF002002EE75946584603F08C
:1038B0003FFE4FF07E51049003F037FF059003F078
:1038C0001FFCCDE9060102F009FECDE9080102F076
:1038D0002BFE0C90584603F013FCCDE906010C9822
:1038E00080F00040039003F00BFCCDE90401DDE91A
:1038F000062302F027FCCDE9080102F015FE05467B
:1039000003212846FFF711FE002802DA6FF00300BA
:10391000FAE6A648C560284603F0F2FBCDE90201AD
:1039200002F0D0FC4FF02042A54BCDE9040103F09A
:10393000D7F84FF02042A34BCDE9060102F026FE56
:10394000CDE9080102F0F0FD0B90284603F0D8FB0A
:10395000CDE9040102F072FD4FF02042984BCDE911
:10396000060103F0BDF8CDE9080102F0DDFD0A9083
:103970000B9803F0C5FBCDE902010A9803F0C0FBE8
:10398000CDE90001DDE9022302F0DCFBCDE906010F
:10399000484603F0B5FBCDE90201504603F0B0FB09
:1039A000CDE90001DDE9022302F0CCFBCDE9040101
:1039B000DDE9062303F0BAFACDE9080102F0B4FD0F
:1039C000044629467248006803F0BAFE2146099071
:1039D00003F0B6FE07467548846007610221204661
:1039E000FFF7A3FD002805DB04213846FFF79DFD06
:1039F000002802DA6FF0010086E6334672488DE84F
:103A0000B00002687148016871480068FFF79DFCCA
:103A1000002802DA6FF0050076E63046FFF715FE63
:103A2000039003F06DFB6B4A6B4BCDE9040103F08F
:103A300057F80022694BCDE9060103F085F9CDE97D
:103A4000080102F071FD664908602046FFF7FDFDA0
:103A5000039003F055FB5F4A5F4BCDE9040103F08F
:103A60003FF800225F4BCDE9060102F08FFDCDE962
:103A7000080102F059FD5C4908602846FFF7E5FDA2
:103A8000039003F03DFB534A534BCDE9040103F08F
:103A900027F80022554BCDE9060103F055F9CDE991
:103AA000080102F041FD524908603846FFF7CDFD9C
:103AB000039003F025FB474A474BCDE9040103F08F
:103AC0000FF80022494BCDE9060103F03DF9CDE99D
:103AD000080102F029FD474908604148006803F0E9
:103AE000BBFC454988814048006803F0B5FC424969
:103AF00048813F48006803F0AFFC3F4908813D48DA
:103B0000006803F0A9FC3C49C88040F2DC50888082
:103B100040F2215048801E4800683849086004205F
:103B2000F2E52DE9F04F8FB02D480168344803F0DD
:103B300007FE8346334903F07DFB824603F0E0FA3B
:103B40008046314A314B02F0CBFF06460022304B13
:103B500002F0D8FD044602F0E7FC0D902D49224802
:103B6000006803F0EDFD079003F0CAFA80462A4A88
:103B70002A4B02F0C7FD8246234A244B02F0B0FFD5
:103B800006460022224B02F0BDFD044648E000003C
:103B9000A00100207B14AE47E17A943F1F85EB51D2
:103BA000B81EF93FC401002052B816C0E00600203C
:103BB000AE47C13F33A2343C0BD7233C3108AC3C69
:103BC0009999B93F47E1BA3FA8000020A40000201E
:103BD000A000002054E3A59BC4A01D4000249840F1
:103BE0008800002000208C408C000020007097404E
:103BF0009000002094000020F4060020B000002077
:103C000000803B4485EBA140F1D4C853FB2109401F
:103C10000080664000409C443D0AD7A3703D16C01A
:103C200002F082FC0C90FE49FE48006803F088FD1B
:103C3000079003F065FA8046FB4AFC4B02F062FDF8
:103C40008246FB4AFB4B02F04BFF06460022FA4B32
:103C500002F058FD044602F067FC0A90F049F7486C
:103C6000006803F06DFD079003F04AFA0646EE4A3D
:103C7000EE4B02F047FD0446ED4AEE4B02F030FFFA
:103C800082460022EC4B02F03DFD804602F04CFCE7
:103C90000B900A990C9803F05FFA81460B9903F098
:103CA0005BFA044603F02CFA074602F00BFB0546CC
:103CB0004FF00052E24B02F013FFCDE904010A99E4
:103CC0000C9803F049FA019003F01AFA064602F044
:103CD000F9FA04464FF02042DA4B02F001FF804629
:103CE00089460C9803F00CFA064602F0EBFA0446FB
:103CF0004FF02042D44B02F0F3FE824642464B4640
:103D000002F044FCCDE90201DDE9042302F03EFCAF
:103D1000CDE9060102F008FC09900A990C9803F01D
:103D20001BFA81460B9903F017FA044603F0E8F9F1
:103D3000074602F083FB05464FF00052C04B02F0ED
:103D4000CFFECDE904010A990C9803F005FA019021
:103D500003F0D6F9064602F071FB04464FF020420C
:103D6000B84B02F0BDFE804689460C9803F0C8F9B6
:103D7000064602F063FB04464FF02042B24B02F0CD
:103D8000AFFE824642464B4602F000FCCDE90201FE
:103D9000DDE9042302F0FAFBCDE9060102F0C4FBE1
:103DA0000890AA49089808600D9803F0A9F982467E
:103DB00002F044FB04460D46099803F0A1F90646BB
:103DC00022462B4602F08CFE804602F0ADFBA04955
:103DD00008600D9803F094F9064602F073FA8246E3
:103DE0008B46099803F08CF9044652465B4602F074
:103DF00077FE804602F098FB964908600A990C9875
:103E000003F0AAF904460B9903F0A6F99249086059
:103E10000FB0BDE8F08F2DE9F14F84B0049803F0A6
:103E20006FF9064602F09CFA04460D468B4800687E
:103E300003F066F9064602F093FA804622462B46C6
:103E400003F074F8824602F06FFB0190FFF771FAFD
:103E5000029003F001FBC0B203900398012803DC39
:103E6000012005B0BDE8F08F0220FAE72DE9FF4FF1
:103E700089B00C4615461E46169803F041F90746D0
:103E800002F06EFA81468A46099803F039F907462E
:103E900002F066FA4A465346CDE9000103F046F8BF
:103EA000CDE9020102F040FB0490FFF742FA83469D
:103EB00003F0D2FAC0B20890179803F021F9074630
:103EC00002F04EFA81468A46204603F019F9074669
:103ED00002F046FA4A465346CDE9000103F026F8BF
:103EE000CDE9020102F020FB8346FFF722FA04909D
:103EF00003F0B2FAC0B20790189803F001F9074630
:103F000002F02EFACDE90001284603F0F9F8074641
:103F100002F026FA8146DDE9002303F007F8CDE937
:103F2000020102F001FB0490FFF703FA834603F05D
:103F300093FAC0B20690199803F0E2F8074602F02F
:103F40000FFACDE90001304603F0DAF8074602F037
:103F500007FA8146DDE9002302F0E8FFCDE902011E
:103F600002F0E2FA8346FFF7E4F9049003F074FAF2
:103F7000C0B20590089801280CDC0798012809DCDC
:103F80000698012806DC0598012803DC01200DB005
:103F9000BDE8F08F0220FAE7214831490860314836
:103FA000314908601F49086030482449086070475B
:103FB0002DE9FF4F87B00C4691469A46079803F0CB
:103FC0009FF8CDE9000102F0CBF907460022284B0B
:103FD00002F0ACFF054602F0A7FA0290FFF7A9F93C
:103FE000834603F039FAC0B20690204603F088F801
:103FF000CDE9000102F0B4F9074600221D4B02F0A2
:1040000095FF054602F090FA0290FFF792F9834679
:1040100003F022FAC0B20590484603F071F82BE095
:1040200000803B44900000203D0AD7A3703D16401D
:10403000F1D4C853FB210940008066409400002061
:10404000AE47C13F9999B93F47E1BA3FA800002068
:10405000A0000020A4000020B00000205400002098
:1040600088000020000082448C000020000096435D
:104070000070874000409040054602F071F9074605
:104080000022FE4B02F052FFCDE9000102F04CFA93
:104090000290FFF74EF9834603F0DEF9C0B20490B8
:1040A000504603F02DF8CDE9000102F059F907461A
:1040B0000022F34B02F03AFF054602F035FA834640
:1040C000FFF737F9029003F0C7F9C0B203900698E2
:1040D00001280CDC0598012809DC0498012806DC7D
:1040E0000398012803DC01200BB0BDE8F08F00200D
:1040F000FAE77FB50446E3480078012828D1E24872
:104100000068E2490968E24A1268E24B1B68CDE99F
:104110000032CDE90210E0480368E0480268E04858
:104120000168E0480068FFF7A1FE012810D134B90A
:10413000DD48DE4908600120DD4908700125012CB9
:1041400006D1DC48D94908600120D9490870022508
:10415000284604B070BD10B504462046FFF7C9FFDD
:1041600060B3D3480078012828D1CF48FFF753FE29
:10417000012800D134B1CF48FFF74DFE01281DD1F1
:10418000012C1BD1CC48C3490860CC48C049086009
:10419000BE490860CA48BC490860BF480368BF48B8
:1041A0000268BF480168BF480068FFF701FF28B1F7
:1041B0000020BF4908700120C249087010BD0128C5
:1041C00028D0022804D0032813D0042844D132E098
:1041D000BD490968AF4A1160BB494968AC4A1160E2
:1041E000B9498968A94A1160B749C968A64A1160E6
:1041F00043E0B6490968A74A1160B4494968A44A2E
:104200001160B2498968A14A1160B049C9689E4AE3
:10421000116032E0AE4909689E4A1160AC494968B4
:104220009B4A1160AA498968984A1160A849C968DF
:10423000954A116021E0A7490968964A1160A5498D
:104240004968934A1160A3498968904A1160A1495D
:10425000C9688D4A116010E09E4909688D4A116055
:104260009C4949688A4A11609A498968874A11605D
:104270009849C968844A116000BF00BF70477CB587
:104280000546002455208DF800008DF8010005201A
:104290008DF8020006208DF803008DF804500120EF
:1042A0008DF8050000208DF8060000BF04E01DF821
:1042B0000400FEF7E3F8641C072CF8DB7CBDFEB5B8
:1042C00006460C46002555208DF800008DF80100AB
:1042D00008208DF8020003208DF8030001208DF8DE
:1042E000040000208DF805008DF806008DF80760A9
:1042F000E0B28DF80800200A8DF8090000BF04E044
:104300001DF80500FEF7BAF86D1C0A2DF8DBFEBD9E
:10431000030A0B701070704770B586B005461821FF
:10432000684601F096F8002455208DF800008DF8BD
:10433000010017208DF8020003208DF803000620ED
:104340008DF80400D0208DF8050007208DF80600B8
:1043500000BF15E0601CC1B204EB4400C01D0DF8A5
:10436000001004EB440308336E469A1904EB44032F
:1043700009339919631C35F81300FFF7C9FF641C52
:10438000062CE7DB002404E01DF80400FEF776F8B5
:10439000641C192CF8DB06B070BD10B50446012C66
:1043A00006D0022C08D0032C0AD0042C10D10BE02C
:1043B0000220FFF764FF0CE00220FFF760FF08E037
:1043C0000220FFF75CFF04E00220FFF758FF00E047
:1043D00000BF00BF10BDFEB504460E460020009091
:1043E000019002900025A5208DF800005A208DF83C
:1043F0000100012E06D0022E08D0032E0AD0042E72
:1044000010D10BE02078401C20700BE06078401C3D
:10441000607007E0A078401CA07003E0A078401C0A
:10442000A07000BF00BF20788DF8020060788DF882
:104430000300A0788DF80400E0788DF80500FF20D7
:104440008DF80600002504E01DF80500FEF774F85D
:104450006D1C072DF8DBFEBD2DE9F041002600277D
:1044600001218807FDF7A1FB00287DD001218807E5
:10447000FDF7ACFB1848007801282FE00040904081
:1044800000C07240D800002094000020900000205E
:104490008C00002088000020500000204C000020EC
:1044A00048000020440000200040FB449800002009
:1044B0003D01002000409C4400803B4400008244B9
:1044C00000009643400100205C0100206C010020A8
:1044D0008C0100207C010020650000200BD1FC48ED
:1044E0000078401CC0B2FA490870052803D10020AA
:1044F0000870F8490870F8480068401CF6490860E0
:1045000008460068C82806D100200860F3480178F2
:10451000F3A000F091FEF648006801283ED100208B
:10452000F4490860F449F54A12688854F4A2F6A1E7
:10453000F148FEF7FDF901282BD1EF48FEF7DAF834
:10454000F3490860F34BEB4A08460168EA48FEF776
:1045500020F9F14BE74AEE480168E748FEF719F900
:10456000EE4BE44AEA4800E09AE00168E248FEF7D0
:1045700010F9EB4BDF4AE6480168DF48FEF7C8F860
:104580000020DE490860DA4908600120E54908702A
:1045900004E00020D9490860D5490860E248007865
:1045A00001287DD0CD4800780C287AD2DFE800F0D1
:1045B000062331648798C1E3FDFCFBFADB48006801
:1045C000401CDA49086008460068022802DA012027
:1045D000FFF755FE0120D6490870D4480068B0F5B1
:1045E000C87F07D10020D1490860BC480078401C32
:1045F000BA490870BFE1CB48007818B90720B7491D
:10460000087005E00020C74908700820B349087009
:10461000B1E1C0480068C7490860BF480068C649A2
:104620000860BE480068C549086008460268C2487C
:104630000168C0480068FFF71EF80446601C40B9D6
:104640000020B8490870BE48BE4908600120A3494F
:104650000870042C0FD10120BB49087000240020F1
:10466000B0490870B648B7490860B848FFF754FE2B
:1046700003209A4908707EE1AC480068401CAB49B1
:10468000086008460068B0F5C87F17D100200860B0
:10469000AD490870AE48AF4908609048007801E025
:1046A0006AE167E1401C8D490870AA48006802F081
:1046B000D3FE85B229460120FFF701FE5BE19B484E
:1046C0000068401C9949086008460068FA2806D12D
:1046D0000020086081480078401C804908704AE149
:1046E00001209949087091480068401C8F49086072
:1046F00008460068022803DA97480078FFF74DFE65
:104700008A480068B0F5FA7F04D140F2E241012006
:10471000FFF7D5FD8548006840F28A21884207D11D
:104720000020824908606D480078401C6B49087081
:1047300021E10120FFF7A3FD7C480068401C7B4974
:10474000086008460068FA2814D1002008608348F1
:104750000078012803D10B20604908700AE08048E6
:104760000078012803D107205C49087002E0072087
:104770005A490870FFE07B48006848B97A480068E9
:1047800030B978481438006810B9012077490870AA
:104790007648007808B9FEF7CBFC74480078012809
:1047A00009D103E063E061E05FE019E00B204B49D1
:1047B0000870FEF711FC5B480078012807D1002043
:1047C00058490870FEF708FC082044490870012089
:1047D0006349087000205649087060490870CAE0B3
:1047E00052480068401C51490860084600681E286D
:1047F00003DA00204B49087036E04C4800681E2858
:1048000015DD4A480068822811DA464800780128F8
:104810002AD1002043490870414800784E49087069
:1048200002202E4908700020404908601CE03F48E3
:104830000068822818DD00203A490870474800784F
:10484000012803D10B20254908700AE0444800786C
:10485000012803D107202149087002E007201F49E1
:10486000087000203149086085E084E083E040481A
:10487000006850B93E48001D006830B93C48083017
:10488000006810B901202A4908702948007808B941
:10489000FEF7B1FC26480078012804D1FEF79CFB06
:1048A00007200E4908701F480078012807D1002012
:1048B0001C490870FEF790FB08200849087000208A
:1048C0002A4908702649087001202449087052E0DE
:1048D000640000206500002024020020A4010020C4
:1048E00074686520737465702069732025640A00FC
:1048F00010010020B0010020CC020020080100209F
:104900005441494C0000000048454144000000006B
:10491000AC010020B4010020B8010020BC0100203F
:10492000C0010020C401002014000020A8010020C4
:104930003E010020A0000020A4000020A8000020CC
:1049400052B816C0A0010020D8000020F4060020B4
:104950000040FB44980000200C0200204101002090
:10496000420100202C012142008121423F01002010
:104970003401224200BF00BF0020BDE8F0812DE9D4
:10498000F04106460F4614461D46DDF81880F748EC
:104990000168304602F0E0FBF44908603946F4480B
:1049A000006802F0D9FBF24908602146F14800682E
:1049B00002F0D2FBEF4908602946EF48006802F098
:1049C000CBFBED4908604146EC48006802F0C4FBAF
:1049D000EA490860E548006802F03EFDE8490880C1
:1049E000E348006802F038FDE549091D0880E14808
:1049F000006802F031FDE24908310880DE480068B5
:104A000002F02AFDDE490C310880DC48006802F023
:104A100023FDDC490880BDE8F081014640F28A228E
:104A2000914201DA012000E00020704770B540F2A9
:104A3000E244FA25284602F02FFD0646D2480168D6
:104A4000304602F041FE04D2284602F025FDCE4950
:104A50000860204602F020FD0646CB48016830463B
:104A600002F032FD04D2204602F016FDC64908606D
:104A7000C649C748006802F027FD02D2C348C449AE
:104A80000860C449C248006802F01EFE02D2C14854
:104A9000BF490860284602F0FFFC0646BE48016890
:104AA000304602F011FE04D2284602F0F5FCBA4965
:104AB0000860204602F0F0FC0646B7480168304620
:104AC00002F002FD04D2204602F0E6FCB249086082
:104AD000284602F0E1FC0646B0480168304602F084
:104AE000F3FD04D2284602F0D7FCAC49086020460A
:104AF00002F0D2FC0646A9480168304602F0E4FC08
:104B000004D2204602F0C8FCA4490860A449A54884
:104B1000006802F0D9FC02D2A348A24908609D496E
:104B2000A048006802F0D0FD02D29A489D49086072
:104B300070BD70B59D48006802F072FC06469B4847
:104B4000006880F00045284602F06AFC04462046D2
:104B500002F0A2FC054696480168284602F0B4FD22
:104B600004D2204602F098FC91490860304602F0D9
:104B700093FC05468E480168284602F0A5FC04D245
:104B8000304602F089FC8A490860204602F084FC25
:104B9000054688480168284602F096FD04D2204662
:104BA00002F07AFC83490860304602F075FC054645
:104BB00080480168284602F087FC04D2304602F0A3
:104BC0006BFC7C490860204602F066FC05467A488A
:104BD0000168284602F078FD04D2204602F05CFC11
:104BE00075490860304602F057FC05467248016876
:104BF000284602F069FC04D2304602F04DFC6E49B2
:104C00000860204602F048FC05466C4801682846CA
:104C100002F05AFD04D2204602F03EFC67490860CB
:104C2000304602F039FC054664480168284602F027
:104C30004BFC04D2304602F02FFC6049086020464D
:104C400002F02AFC05465E480168284602F03CFD59
:104C500004D2204602F020FC59490860304602F098
:104C60001BFC054656480168284602F02DFC04D27C
:104C7000304602F011FC52490860204602F00CFC5C
:104C8000054650480168284602F01EFD04D2204621
:104C900002F002FC4B490860304602F0FDFB05467D
:104CA00048480168284602F00FFC04D2304602F062
:104CB000F3FB4449086070BD10B53220FDF762FE79
:104CC0000446012C07D14048007808B9012000E0D3
:104CD00000203D49087010BD10B504463B480068EF
:104CE000052807D128480168204602F035FA2649F0
:104CF00008609CE035480068062807D12248016812
:104D0000204602F012FD2049086090E02F4800681C
:104D10000D2807D11E480168204602F006FD1C49F7
:104D2000086084E0294800680E2807D11848016807
:104D3000204602F011FA1649086078E0234800681E
:104D4000072807D114480168204602F0EEFC1249FA
:104D500008606CE01D480068082839D10E480168D9
:104D6000204602F0F9F90C49086060E04400002098
:104D7000480000204C00002050000020540000207B
:104D800034080040342C01408800002000007A43A1
:104D90008C00002000409C449000002094000020E3
:104DA0000080224498000020008009445C0000201C
:104DB0002C000020300000203400002038000020AB
:104DC0003C0000204000002014000020D4000020FF
:104DD000F84800680F2807D1F7480168204602F01C
:104DE000A4FCF549086022E0F2480068102807D1C9
:104DF000F1480168204602F0AFF9EF49086016E07B
:104E0000EC4800680C2807D1EC480168204602F005
:104E10008CFCEA4908600AE0E64800680A2806D1E6
:104E2000E6480168204602F097F9E449086010BDA1
:104E30002DE9F04704460D462946204602F075FC50
:104E4000DF49086008460168DE48006802F084F91E
:104E5000DC490860DC480168D948006802F070FC51
:104E60008146DA480168484602F062FB8046D8492C
:104E700002F0E0F90646D3480168D648006802F01F
:104E800057FB8246D24902F0D5F98046CC480168EA
:104E9000D148006802F04CFB8246CD4902F0CAF9C5
:104EA0008146414602F058F90746314602F054F96E
:104EB000CA490860C2480068C3490860C74800681A
:104EC000BDE8F0872DE9F04704460D462946204607
:104ED00002F02BFCC249086008460168C14800681E
:104EE00002F03AF9BF490860BF480168BC48006851
:104EF00002F026FC8146B5480168484602F018FBDE
:104F00008046B34902F096F90646B6480168B148B2
:104F1000006802F00DFB8246AD4902F08BF9804635
:104F2000AF480168AC48006802F002FB8246A8491D
:104F300002F080F98146414602F00EF907463146FB
:104F400002F00AF9A9490860A5480068A649086066
:104F5000A6480068BDE8F0872DE9F04704460D46F5
:104F60002946204602F0E1FBA14908600846016895
:104F7000A048006802F0F0F89E4908609E48016869
:104F80009B48006802F0DCFB814690480168484677
:104F900002F0CEFA80468E4902F04CF9064695485A
:104FA00001688C48006802F0C3FA8246884902F022
:104FB00041F980468E4801688748006802F0B8FAD7
:104FC0008246834902F036F98146414602F0C4F830
:104FD0000746314602F0C0F88849086084480068F6
:104FE0008549086085480068BDE8F0872DE9F047ED
:104FF00004460D462946204602F097FB804908608A
:10500000084601687F48006802F0A6F87D490860FC
:105010007D4801687A48006802F092FB81466B483F
:105020000168484602F084FA8046694902F002F9B4
:105030000646744801686748006802F079FA8246BB
:10504000634902F0F7F880466D48016862480068DD
:1050500002F06EFA82465E4902F0ECF88146414663
:1050600002F07AF80746314602F076F867490860A0
:10507000634800686449086064480068BDE8F087D8
:105080002DE9F04704460D462946204602F04DFB27
:105090005F490860084601685E48006802F05CF8F5
:1050A0005C4908605C4801685948006802F048FBA8
:1050B000814646480168484602F03AFA804644492B
:1050C00002F0B8F80646534801684248006802F00A
:1050D0002FFA82463E4902F0ADF880464C480168FE
:1050E0003D48006802F024FA8246394902F0A2F8ED
:1050F0008146414602F030F80746314602F02CF86E
:1051000046490860424800684349086043480068CF
:10511000BDE8F0872DE9F04704460D4629462046B4
:1051200002F003FB3E490860084601683D480068FC
:1051300002F012F83B4908603B48016838480068B3
:1051400002F0FEFA814621480168484602F0F0F973
:1051500080461F4902F06EF80646324801681D4835
:10516000006802F0E5F98246194902F063F88046CA
:105170002B4801681848006802F0DAF982461449A1
:1051800002F058F88146414601F0E6FF07463146F5
:1051900001F0E2FF254908602148006822490860C3
:1051A00022480068BDE8F0870146002940DA4842FD
:1051B0003FE00000D4000020940000209800002070
:1051C00030020020380200203C020020C0000020F5
:1051D0000000C842BC000020B800002034020020BB
:1051E00040020020480200204C020020440200201F
:1051F00050020020580200205C02002054020020CF
:1052000060020020680200206C020020640200207E
:1052100070020020780200207C020020740200202E
:1052200080020020880200208C02002084020020DE
:1052300008467047704700000FB4044910B503AA30
:10524000029800F0ADF910BC5DF814FB04010020D9
:105250002DE9F0410646002410687529314616A54F
:1052600010D0AFF30080002802DA404213A507E017
:1052700031688A0701D512A502E0490704D511A5B6
:10528000012401E0AFF3008000210A2206F1240787
:1052900009E0B0FBF2FCB0FBF2F302FB1C00303083
:1052A00078541846491C0028F3D123462A46304634
:1052B000BDE8F04100F003B9000000002D0000003F
:1052C0002B000000200000002DE9F0474FF0000AFD
:1052D00089460446C0F820A02046E1688847002897
:1052E00076D0252806D0D4E901219047206A401CB9
:1052F0002062F1E7E168204600258847C4F81CA039
:1053000006460027C4F818A02A2E09D0304600F01F
:10531000C9FC38B304EB8708303EC8F8186019E0C0
:1053200059F8041B204604EB87029161E168884725
:10533000012F064618D1E069002820DA25F0200563
:105340001DE0D8F8180000EB800006EB4000303874
:10535000C8F818002046E1688847064600F0A2FC1D
:105360000028EED1012F0AD02E2E08D12046E16868
:1053700088477F1C0646022F45F02005C4DBA06944
:10538000002803DA404245F00105A061E80701D09A
:1053900025F01005B6B1A6F14100192802D8203633
:1053A00045F400654A463146204625604D46FAF7E9
:1053B00019FF58B1012806D0ED1D25F0070000F1B6
:1053C000080989E704E005F1040985E730468AE722
:1053D000206ABDE8F08700000B4910B5A1F17C02FE
:1053E0000A4CC2E93712372106E000EB104342F8BD
:1053F0002130074B00FB03400B1EA1F10101F4DC3F
:1054000010BD0120E8E7000080070020E119D66602
:10541000CD0D010010B5431C02E010F8011B71B165
:105420008107FAD14FF0013202C88C1A8C4314EA7A
:10543000C211F9D0C01A0A0603D0C01E10BDC01A8E
:1054400010BD0A0401D0801E10BD0902FCD0401E10
:1054500010BD4FF0000200B5134694469646203921
:1054600022BFA0E80C50A0E80C50B1F12001BFF41D
:10547000F7AF090728BFA0E80C5048BF0CC05DF883
:1054800004EB890028BF40F8042B08BF704748BFD1
:1054900020F8022B11F0804F18BF00F8012B704745
:1054A000704770477047704710B500F08BF8006880
:1054B00010BD10B5044600F085F8046010BD2DE95C
:1054C000F0470D4699469246044600F124080168CB
:1054D000880604D5E06921F01001216000E0012078
:1054E000A84201DD471B00E00027A1697A1902EB01
:1054F0000900081AA0612078C00602D42046AFF344
:105500000080002608E0D4E901211AF8060090473F
:10551000206A401C761C20624E45F4DB2078C006D1
:105520000AD52046AFF3008006E0D4E901213020FF
:105530009047206A401C2062381EA7F10107F4DC66
:1055400007E0D4E9012118F805009047206A401CC3
:105550002062281EA5F10105F3DC2046AFF3008090
:105560002078000602D50220BDE8F0870120FBE785
:1055700001694A1C02610878704700B58FB0CDE917
:1055800001310021059105497944CDE90310114607
:105590006846FFF799FE0FB000BD0000E5FFFFFF72
:1055A000074B70B50D467B44FFF7E7FF04462846DE
:1055B00000F00CF810B14FF0FF3070BD204670BD08
:1055C00099CEFFFF00487047E8070020007B00F0FD
:1055D0008000704700487047E80700207546FFF7D5
:1055E000F9FFAE4605006946534620F007008546A0
:1055F00018B020B5FAF77AFFBDE820404FF000065A
:105600004FF000074FF000084FF0000B21F00701AA
:10561000AC46ACE8C009ACE8C009ACE8C009ACE8ED
:10562000C0098D46704710B50446AFF30080204690
:10563000BDE81040FAF7EABD490050EAC12018BFA2
:1056400004204A0D18BF40F0010040F2FF72B2EB97
:10565000515F08BF40F00200012808BF05207047D5
:105660002DE9F74F144694B00021C4E902111599B1
:10567000079121F00045C9498D4206DC1599C4E91E
:10568000000117B00020BDE8F08FC549DFF814A372
:10569000A9423CDD0799C44E0029C44FC44A15995C
:1056A000534619DD01F042FC554506D0C14AC24BB4
:1056B00001F03CFCC4E900010AE04FF0D352BE4BBC
:1056C00001F034FC32463B4601F030FCC4E90001F5
:1056D00017B00120BDE8F08F00F058FF554506D007
:1056E000B44AB54B00F052FFC4E900010AE04FF0A4
:1056F000D352B14B00F04AFF32463B4600F046FF22
:10570000C4E9000117B04FF0FF30BDE8F08FAB499E
:10571000A942159978DB21F0004183468846A84AC2
:10572000A84B01F0DDF90022A74B00F02FFF01F09C
:1057300041F9099001F06DF906460F469C4A53461F
:1057400001F0CEF943465A4601F0FEFA80468A46F9
:10575000984A994B3046394601F0C2F92A0D012585
:105760000B924246534601F0EFFA032DC4E90001C3
:1057700039D00B98C1F30A51401A05EB4511113984
:10578000814230DA9148C346784400EB0510CDF8E9
:105790000CA00C90D0E900233046394601F0A0F966
:1057A00002460B46049106905846039901F0BEFB51
:1057B00080468A4602460B465846039901F0B6FBDE
:1057C000049B069A01F0B2FB83460C98039139467C
:1057D000D0E90223304601F083F95A46039B01F0D9
:1057E000A5FB6D1CBDE707980028A2BF099817B05C
:1057F000BDE8F08F616881F000416160099817B0E1
:105800004042BDE8F08FFFE784461598C1F31301CD
:10581000C0F30A50A0F2F5304FEA601800F01F06FE
:10582000C6F12000139000200690079041F4801EDE
:1058300005206D4676B1664A08EB00017A4452F8BD
:10584000213002EB8101B3404A68139922FA01F139
:10585000194305E05F4908EB0002794451F8221032
:10586000A1FB0E27A1FB0C131A449A4234BF01235B
:10587000002303EB070A05EB8003D3E901B70F44CC
:105880008F4234BF0121002193448B4411B19345D1
:1058900002D903E0934501D2012100E00021C3E9D0
:1058A00001B7514445F82010011EA0F10100C1DCF0
:1058B0000298059F00F10050800F12900298DDE9D8
:1058C0000356800001F0A5F8834628460D9101F0AB
:1058D000B7F86FF01D0201F0DAFFCDE90E01304696
:1058E00001F0AEF86FF03D0201F0D1FF80468A462C
:1058F000384601F0A5F86FF05D0201F0C8FF0746D9
:1059000042465346119100F041FEDDE90E2300F0BE
:105910003DFE5A460D9B00F039FE00250E465A46C4
:1059200028460D9B01F002FBDDE90E2301F0FEFA93
:105930004246534601F0FAFA3A46119B01F004FA46
:10594000DFF898A0244A534601F0CAF80746884673
:10595000234A244B3146284601F0C2F83A464346D2
:1059600000F014FE074688464FF0A84253463146E1
:10597000284601F0B5F83A46434600F007FE159A6E
:1059800012F0004F04D0129A81F00041524212925C
:10599000C4E90001129817B0BDE8F08FFB21E93F80
:1059A0007CD90240FB21F93F7370032E8A19A33B77
:1059B000000040543163621A61B4D03DFB2139418B
:1059C00083C8C96D305FE43F0000E03FB4220000AF
:1059D0003022000012220000182D4454FB21F93D12
:1059E0003326A611460B113C2DE9FF4D21F000484E
:1059F00007460C46B8F1795F08DA00F0DBFF0028B3
:105A000001BF0020324904B0BDE8F08D3A4623467C
:105A10001046194601F064F8054602462D480E4628
:105A20000B460621784400F05DF82A46334601F023
:105A300057F8DDE9022382468B463846214601F0BD
:105A40004FF804460F4652465B462846314601F061
:105A500047F822463B4601F069FA07468A464FF06E
:105A6000FF322846314601F012FF1B4A90450ADA00
:105A70003A46534601F05AFA04B00022BDE8F04D10
:105A8000134B01F061B9154A4245A8BFA8F50015AE
:105A90004FF00004B8BF124D22462B4601F046FAE3
:105AA0000646884622462B460020094901F03EFA68
:105AB00004460D463A4653463046414601F036FA12
:105AC00004B022462B46BDE8F04D01F03DB9000080
:105AD0000000F03FE01F00003333D33F0000E93FF8
